:020000044000BA
:10000000973600009386864B173600001306465C31
:10001000974100009381C1C817810000130181FE40
:10002000173200001302B25E137202FC23A0060016
:1000300093864600E3CCC6FE970200009382820CB2
:10004000370300F023205300EF108072EF10D071BF
:10005000B70200E023A0A20063000000000000003F
:100060000000000000000000000000000000000090
:100070000000000000000000000000000000000080
:100080000000000000000000000000000000000070
:100090000000000000000000000000000000000060
:1000A0000000000000000000000000000000000050
:1000B0000000000000000000000000000000000040
:1000C0000000000000000000000000000000000030
:1000D0000000000000000000000000000000000020
:1000E000B16B00B50000000000000000000000003F
:1000F0000000000000000000000000000000000000
:1001000013000000130181FD232011002322510060
:1001100023246100232671002328A100232AB10093
:10012000232CC100232ED1002320E102B70700F0C9
:100130009387070483A707009387C7FF2322F10251
:10014000B70500F003A5050103A605023375C50038
:1001500093050100EF10006383200100832241001A
:10016000032381008323C10003250101832541016D
:10017000032681018326C10103270102B70700F08E
:100180009387070393E71700130181022380F70089
:100190008327C1FF67800700B70500F0938505033B
:1001A00003A6050023A0A500130506006780000034
:1001B0002320850023229500232435002326450093
:1001C00023282500232A15001365000067800000FE
:1001D0000324050083244500832185000322C500F4
:1001E000032105018320450113E505006780000018
:1001F0000324050083244500832185000322C500D4
:100200000321050183204501B70700F09387070309
:1002100093E717002380F700678000007300000059
:1002200067800000130181FE232A1100232691001C
:10023000630E050C232881002320B100EF105044E9
:1002400013777500832501001304050093563500CC
:100250006316070213860600130700009314360086
:1002600063880502032401018320410113850400F2
:100270008324C10013018101678000001306800000
:100280003307E6401386160093143600E39C05FC02
:1002900037350040130545AB2324C1002322E1007C
:1002A0002320D100EF10104837350040930504009B
:1002B000130505ADEF1010478326010037350040C8
:1002C000130505AF93850600EF10D04503274100C5
:1002D00037350040130505B193050700EF10904432
:1002E000032681003735004093850400130505B3CC
:1002F000EF105043832041010324010113850400C2
:100300008324C1001301810167800000373500405C
:10031000130585A9EF1010418320410193040000CB
:10032000138504008324C10013018101678000004C
:10033000130141FF23209100B7350040B73400403E
:10034000938585B6138584572324110023228100C9
:10035000EF1050319305000013858457EFF09FECA8
:10036000130705003735004037340040130545B901
:100370002324E44CEF10103B37350040130505BE35
:10038000EF10503A3735004093858457130545CA1E
:10039000EF1050398325844C13858457EF00D04AE1
:1003A00037370040130547CCEF10D03737370040C0
:1003B0001305872993050000EF0010466314051A02
:1003C00037370040130547CCEF10D0350326844C57
:1003D000373700409385845713058729EF0010466F
:1003E0000326844C37370040B73500401305872972
:1003F00093854554EF00D04337350040130545CE73
:10040000EF105032373700401305C74D1306200355
:1004100093050000EF10102F0326844C373700405F
:10042000B7350040938545541305C74DEF10D027CD
:100430008325844C373700401305C74DEF00D0406B
:10044000B7360040373700401307874B938586291E
:100450001306B001B73600401305300023A4E500B1
:1004600023A2C62CEF00D05A0326844CB736004096
:10047000B73500409385455413858629EF00103C1D
:100480000326844CB736004013858629B7360040D2
:1004900093850651EF00D03937350040130505D05C
:1004A000EF105028373700401305C74D13062003BF
:1004B00093050000EF1010250326844CB73600404A
:1004C00037370040938506511305C74DEF10D01DF7
:1004D0008325844C373700401305C74DEF00D036D5
:1004E00037350040130585D2EF10D023138584578C
:1004F000EF101019B736004013060500938506511A
:1005000013858457EF10901C6306050437350040AF
:10051000130505DBEF101021373700401305475452
:10052000EF1050353737004013050751EF10903466
:1005300013053000EF00D04D0324410083208100DB
:100540008324010037370040130587291301C100B8
:100550006F00502D37350040130545D7EF10901C24
:100560006FF09FFBEF20402E032441008320810089
:10057000832401009305050037350040130585CC21
:100580001301C1006F10101A1301C1FF23201100C5
:10059000EFF01FDA13050000EF10906E6F000000FF
:1005A000B7150000370500401301C1FF9385058092
:1005B0001305855823201100EF20801137350040A6
:1005C00013058529EF0090248320010013051000F6
:1005D0001301410067800000370700E72320070070
:1005E0008326070093E606012320D7008326070011
:1005F00093E686002320D7008326070093F676FF34
:100600002320D70003230500232867000323450088
:100610002320670203238500232867020323C500E4
:1006200023206704832505012328B70403264501F9
:100630002320C7068326070093E646002320D70021
:100640008326070093F6B6FF2320D70067800000BB
:10065000130141FF2322810023241100130405000C
:10066000EF20801E373300400357034A6314A70A64
:10067000373700400326C74993061000630AD60C9B
:1006800023209100B734004083A5444A1306900705
:1006900083C565066384C50603248400032504001E
:1006A000630C0500EF10101D3737004023200400B5
:1006B0002322040037330040373500409305F0FF14
:1006C00013061000130545E9232EC7482310B34A2B
:1006D000EF10500583A6444A1307900783C66606A9
:1006E0006386E60283240100130500008320810055
:1006F000032441001301C10067800000EF00D04EC9
:1007000037370040373300406FF01FF9EF00904C4F
:100710006FF05FFD37350040130585DFEF10900067
:10072000373300408355034A37350040130505E24F
:10073000EF10407FEF204011930505003735004052
:10074000130545E4EF10007E1305F0FF6FF01FFA6C
:10075000373500401305C5E6EF10C07C1305E0FFF8
:100760006FF0DFF8130141FF23209100B734004000
:1007700083A6C44923241100130710006386E610E2
:1007800023228100373400408355044A3707010093
:100790001307F7FF6390E50C373700408326474A7D
:1007A0001307900783C666066386E6063735004062
:1007B000130505E2EF100077EF200009930505000F
:1007C00037350040130545E4EF10C0758355044AE2
:1007D000370701001307F7FF6398E504EF20C00611
:1007E000373700400327474A23AE04482310A44A62
:1007F00083466706130790076384E60203244100DB
:100800001305000083208100832401001301C1002F
:1008100067800000EF00503D8355044A6FF01FF9D8
:10082000EF00503B6FF09FFD37350040130545ED5D
:10083000EF10406F373700408326474A1307900771
:1008400083C66606638AE602032441001305F0FFAF
:100850006FF05FFBEF10507F130705003735004046
:10086000130545EB2310E44AEF10C06B1305F0FFAE
:10087000032441006FF01FF9EF00D0351305F0FF9E
:10088000032441006FF01FF8373500401305C5E61B
:10089000EF1040691305F0FF6FF0DFF6130101FF61
:1008A00023248100373400400327C4492326110044
:1008B0006302070823229100B734004083A6444A0C
:1008C0001307900783C66606638AE604032785003C
:1008D000373500409306F0FF23200700232207004E
:1008E000130585F1373700402310D74A232E0448DB
:1008F000EF10406383A6444A1307900783C6660639
:100900006386E60283244100130500008320C100B2
:100910000324810013010101678000002320A1004E
:10092000EF00902C032501006FF05FFAEF00902A92
:100930006FF05FFD37350040130545EFEF10805E27
:100940001305F0FF6FF09FFC130101FF2326110038
:100950002320C100638205102324810023229100FB
:100960001384050093040500EF10106EB7360040A5
:1009700083D6064A1306E0FF639EA602B736004000
:1009800003A6C649930610006300D60CB736004094
:1009900083A5464A1306900783C56506638EC50284
:1009A00083A484000327010003A644006360C702F8
:1009B0006314060403248100832441008320C100C2
:1009C00013050600130101016780000013060700EC
:1009D000E30206FE6F004002EF00102183A48400B2
:1009E00003270100B736004003A644006374C70024
:1009F000130607006306060283A50400130504001E
:100A00002320C100EF10404A03A50400EF108066C8
:100A10000326010023A0040023A20400B7360040EF
:100A200083A6464A1307900783C66606E394E6F852
:100A30002320C100EF00101A0326010003248100C7
:100A4000832441006FF09FF7032481008324410039
:100A50001306D0FF6FF09FF68320C1001306F0FF4E
:100A6000130506001301010167800000130141FC1A
:100A7000232C11022320B100630C0532832685004C
:100A800063880632832645002324A1006382063250
:100A9000638205482328910293040600EF10D05A80
:100AA000B736004083D6064A1307D0FF2322E10061
:100AB0006394A62CB736004003A6C64993061000DF
:100AC0006302D650373700400326474A232A810263
:100AD000930690070346660603278100630CD64CF5
:100AE00003244700032787002328E100638C044A7E
:100AF00093F6740013D63400232ED1002324C100B2
:100B0000232C01006392062C032781008326010118
:100B10001317370023A2E600130507002322E10084
:100B2000EF10805F232AA1006306052603264100FB
:100B300093050000EF10003D032701010325070086
:100B400063040500EF10005303254100EF10C05C63
:100B50008326010123A0A600630A05220326410083
:100B600093050000EF10003A03254100EF10C05A32
:100B70002326A100630805460326410093050000D3
:100B8000EF104038032704028325010003254101AB
:100B90002322E10203274402138604002320E102FA
:100BA000EF1080300327C101631C07228326C40194
:100BB0001307C0036382E6248326840113076003BE
:100BC000638CE622370700E723200700832607000F
:100BD0002320D7008326070093E686002320D70032
:100BE00003250700137575FF2320A70003250400C4
:100BF0002328A700032544002320A70203258400FF
:100C00002328A7020325C4002320A7048325040169
:100C10002328B704032644012320C70683260700A0
:100C200093E646002320D7008326070093F6B6FFFD
:100C30002320D700032781006308070E0327410103
:100C4000930400002320E1006F004004930680021B
:100C5000630AD71A9306C0036300D7240327C10091
:100C600013953400130680003305A7009305810215
:100C7000EF108023032701009384140013078700DB
:100C80002320E100032781006300970A13068000F8
:100C90009305000013058102EF10C0268325010093
:100CA0001306400013058102EF1000200327010006
:100CB0001305C1021306400093054700EF10C01E44
:100CC0000327C40193064001E312D7F8832681026B
:100CD000370700E7130510002328D7068326C10233
:100CE000370700E72320D708370700E783260700E8
:100CF00093E626002320D7008326070093F6D6FF2D
:100D00002320D700EF00C050370700E783260709EC
:100D1000370700E71307070A2324D1020327070038
:100D20002326E1026FF09FF3032701010326410010
:100D300003250700032741022320E40203270102C1
:100D40002322E4020324C10093050400EF10C01520
:100D500003254101EF10003213050400EF1080312C
:100D6000373700408326474A1307900783C6660635
:100D70006382E62603244103832401038320810345
:100D8000032541001301C1036780000003254101D1
:100D9000EF10402E373700408326474A130790074D
:100DA00083C66606638CE62403244103832401037F
:100DB000832081031307F0FF2322E1000325410074
:100DC0001301C1036780000013078000130616009B
:100DD0003307D7402324C100232CE1006FF0DFD27A
:100DE0000327410103268101930530003305970055
:100DF000EF1040116FF09FDB13050400EFF0CFFD03
:100E00006FF05FE3032684011307600383268102EA
:100E10008325C102630CE610232EB100370700E7DB
:100E20002328D7060326C102232CD100370700E769
:100E30002320C708370700E7032607001305100023
:100E4000136626002320C700032607001376D6FF6B
:100E50002320C700EF00C03B370700E70325070941
:100E6000370700E7032604022324A1020323070A0D
:100E700003274402832681018325C1013346A6004E
:100E8000334767002324C1022320D4022326E10232
:100E90002322B4026FF09FDC832504020326440260
:100EA000B70600E723A8B60623A0C608370700E761
:100EB000832607001305100093E626002320D700A1
:100EC0008326070093F6D6FF2320D700EF00403497
:100ED000B70600E703A506090326810283A5060AD3
:100EE000032744028326C1023346A60013071700D6
:100EF000B3C6B6002324C1022326D1022322E40272
:100F0000E31E07D403270402130717002320E4027B
:100F10006FF0DFD4832081031307E0FF2322E10079
:100F2000032541001301C103678000000327040269
:100F3000032644021305100033C7E6003346B6000B
:100F40002324E1022326C102B70600E723A8E60610
:100F50008326C102370700E72320D708370700E7B9
:100F60008326070093E626002320D7008326070068
:100F700093F6D6FF2320D700EF008029370700E73C
:100F800083260709370700E71307070A2324D1023E
:100F9000032707002320D4022326E1022322E402B0
:100FA0006FF0DFCB03250100EF00906D9304050087
:100FB0006FF01FB42322E100EF000043032741003C
:100FC0006FF01FB21307C0FF832401032322E10047
:100FD0006FF0DFDAEF0000400324410383240103B4
:100FE0006FF0DFD903254101EF10C008032701018D
:100FF00003250700EF1000086FF0DFD9EF00803DF8
:1010000003244103832401036FF09FDA0327C50003
:1010100003270700670007000327C5000327870091
:10102000670007000327C5000327C7006700070004
:101030000327C50003270701670007000327C50032
:1010400003274701670007001301C1FD2320110298
:101050002320A10063860518137705FF13070701F6
:10106000232E8100232C91002324E100232601005C
:10107000232AB1001305A000EF10500403278100BC
:101080001304C001930407FF33D784401377F7009C
:10109000930690001305070363D4E6001305770356
:1010A000EF10D0011304C4FF1307C0FFE31EE4FCDC
:1010B00013050002EF109000130400002328910094
:1010C0006F000003EF10807F13050002EF10007F18
:1010D00013050002EF10807E1307700093060001D5
:1010E0006306E4061304140093841400630AD40610
:1010F000032701001305000213069000E3E4E4FC5B
:1011000003C7040093564700138576036364D60033
:10111000138506032322E100EF10407A03274100E4
:10112000930690001377F7001305770363E4E60056
:1011300013050703EF10807813050002EF10007805
:101140001307700093060001E31EE4F81305000284
:10115000EF10C07693841400130480006FF05FF9E1
:101160001305000283240101EF1040751305C00729
:10117000EF10C074032481006F0040011385060046
:1011800093841400EF1080736384840283C6040088
:101190001306E0051305E002138706FE1377F70F29
:1011A000E37EE6FC93841400EF104071E39084FE2C
:1011B0001305C007EF108070832681000327C1004C
:1011C000938606012324D1008326410113070701DA
:1011D0002326E100E360D7EA0324C10183248101CF
:1011E0008320010213050000130141026780000003
:1011F000370700F02328A70C6780000013050000C4
:1012000067800000370700F00325070D67800000A6
:10121000130101FE232A9100B74402E103A7040051
:1012200037867D01232C81002324E100232801003F
:10123000232E110013040500232601001306068443
:10124000930680016F00000303274100832581007E
:101250000325C1003307A7003307C7003307B74092
:101260002326E100032741002324E1000327C100D6
:1012700063E4E604032701016372870803A70400FF
:101280002322E1008325410003278100E3EEE5FAF4
:1012900003274100832581000325C1003307A700F0
:1012A0003307B7402326E100032741002324E10050
:1012B0000327C100E3F0E6FC0325C1000327010179
:1012C000930590012320E100EF00507A03270100ED
:1012D000930590013305E5002328A1000325C100F3
:1012E000EF00507D37877D012326A1001306078478
:1012F0000327010193068001E36287F88320C1017F
:10130000032481018324410113010102678000004D
:10131000373500408326054D1301C1FF37370040A4
:10132000232011008325C74C639C0602374702E146
:101330008326070003270700374702E1032307003E
:1013400013069001930600002328654C032507002F
:10135000EF00507A832001001301410067800000F4
:10136000374602E103260600E378D6FC9385150094
:101370002326B74C6FF05FFC6F1000341301C1FFE0
:101380001305000023201100EFE01FE13715004096
:101390001305051FEF104050371500401305452079
:1013A000EF104050371500401305C51FEF10405097
:1013B000374702E1130620002328C740832001009D
:1013C000232007409306A0612320D7421301410048
:1013D00067800000371702E1832607C093E64600C6
:1013E0002320D7C067800000371702E1832607C09B
:1013F00093F6B6FF2320D7C0678000001301C1FF1A
:1014000023201100EFF0DFF083200100130510000E
:10141000130141006FE05FD8373700408326474A09
:101420001307900783C66606639AE600371702E142
:10143000832607C093E646002320D7C06FE05FDB1A
:10144000B385C5002328B500232AD5006780000096
:1014500037350040130585F36F00D02C1301C1FE12
:1014600023268100232491002328110093040002E5
:1014700013041000370700E1130707400327070094
:10148000930600023377870063EEE600B73600402C
:1014900013172700938606193307D7000327070081
:1014A00067000700370700E1832507403735004014
:1014B000130505F4EF001027370700E11307074075
:1014C0000327070013141400630607009384F4FF36
:1014D000E39204FA832001010324C10083248100E4
:1014E0001301410167800000370701E1371601E170
:1014F0001307074013060680B71601E1032707000C
:10150000938606C00326060083A606003347C7005D
:101510003377D70093761700638C0604B74601E152
:101520001386060083A6060203230603032506048A
:1015300083250603B3C66600B3F6A600B3C6B6009D
:101540002328D60293060000B735004013962600E4
:10155000938545373306B600032606002322E100B3
:101560002320D100E7000600032741008326010065
:1015700013571700E30207F413761700938616003B
:10158000631A060013571700137617009386160088
:10159000E30A06FE930520006386B61A63EAD516B1
:1015A000B74501E11385050083A505428322054364
:1015B0000323054483260543B3C55500B3F56500F1
:1015C000B3C5D5002328B542930606006FF0DFF7B8
:1015D000370703E1371603E11307074013060680B8
:1015E000B71603E103270700938606C0032606000B
:1015F00083A606003347C7003377D70093761700DA
:101600006384060493060000371503E1B7320040F7
:1016100003230580939526009382422FB3855500BE
:10162000130610003316D60083A505002322E1001F
:101630002320D100334666002320C580E7800500C3
:1016400003274100832601001357170093861600D5
:10165000E30407E613761700E31806FA135717009A
:101660001376170093861600E31006FA6FF01FFF3B
:10167000370702E1371602E1130707401306068019
:10168000B71602E103270700938606C0032606006B
:1016900083A606003347C7003377D7009376170039
:1016A0006384060493060000371502E1B732004058
:1016B000032305809395260093824233B38555001A
:1016C000130610003316D60083A505002322E1007F
:1016D0002320D100334666002320C580E780050023
:1016E0000327410083260100135717009386160035
:1016F000E30407DC13761700E31806FA1357170004
:101700001376170093861600E31006FA6FF01FFF9A
:1017100013063000E39AC6E2375601E1930506004E
:10172000032606C283A205C303A305C403A505C3FC
:1017300033465600337666003346A60023A8C5C25A
:101740006FF09FE0375601E19305060003260682FD
:1017500083A2058303A3058403A5058333465600AE
:10176000337666003346A60023A8C5826FF0DFDD1E
:10177000B70600F01306100023A0C60223A8C60275
:1017800067800000130141FF232281002320910084
:1017900023241100B734004013771500130405000B
:1017A000938444386308070003A704006304070018
:1017B000E7000700135414009384440063000402FC
:1017C00013771400E31207FE135414001377140068
:1017D00093844400E31A07FC6FF01FFF832081000D
:1017E00003244100832401001301C100678000002D
:1017F000130181FB2322110403C705002326C10026
:101800009303050063000708232E9102232081041F
:101810009384050093065002631ED7461306000307
:10182000930290001305000203C714006308C74029
:10183000930607FD93F6F60F9384140093050002B8
:101840001304F0FF63FAD240130787FA1377F70FF8
:10185000636EE500B73600401317270093864621D4
:101860003307D700032707006700070093820400AF
:1018700003C7120093841200E31E07F80324010437
:101880008324C103638C030003A30300230003002C
:1018900003A703001307170023A0E30083204104DC
:1018A00013018104678000000326C1009306000134
:1018B00003270600130646002326C100631E070EF9
:1018C000930600032306D102130310009306C102FE
:1018D000330664401304F6FF6354C002638203249A
:1018E00003A303001306F0FF2300B30003A30300C8
:1018F0001304F4FF1303130023A06300E316C4FED4
:101900003384E600034504006380032603A3030039
:101910006F00C0000345F4FF130407002300A30079
:1019200003A303001307F4FF1303130023A06300B2
:10193000E39286FE03C7140093841400E30007F4C7
:1019400093065002E30CD7EC938604002300E300D7
:1019500003A303001306500293841400130313001F
:1019600023A0630003C7160063040702E308C7EA65
:101970002300E30003A30300938604009384140070
:101980001303130023A0630003C71600E31007FE30
:10199000032401048324C1036FF05FEF93841400D8
:1019A0000326C1009306A000032706001306460085
:1019B0002326C100E30607F02320D1001306070009
:1019C00037370040130707F7130300009306C102DF
:1019D00023208102232AE100232EB10013040300F7
:1019E00023229102232471022328D10083250100A0
:1019F0001305060093040600EF005007832601013B
:101A000083250100232C8100130414001306050014
:101A100033878600138504002324C1002322E100BC
:101A2000EF0050098326410103274100032681006E
:101A30003385A60083460500A30FD7FE03270100C8
:101A4000E3F6E4FA130304008325C1010324010231
:101A5000832441020327810183238102832601011C
:101A60006FF01FE78326C10003A706009386460098
:101A70006300072603450700630C0502630E043C60
:101A80006384032E03A303006F0080006308040433
:101A90002300A30003A30300130717001304F4FF9C
:101AA0001303130023A0630003450700E31005FEA2
:101AB0001307F4FF6352803A6380032603A30300F5
:101AC0001306F0FF2300B30003A303001307F7FF7F
:101AD0001303130023A06300E316C7FE03C714001B
:101AE00093841400E30C07D8130650026310C72236
:101AF0002326D1006FF09FD28326C10003A70600E2
:101B0000938646006312072E130600032326D10096
:101B10002306C102130420009306C102E39203DCF2
:101B2000232091002322E100930404002324710068
:101B3000138405002328D10013050400EF0010587A
:101B40009384F4FF9306F0FFE398D4FE032741004B
:101B50008326010183238100832401003384E6006E
:101B600003450400E39403DA23209100232271004B
:101B700093840600631C05001306F4FF638E840043
:101B80000345F4FF13040600E30805FEEF001053BD
:101B90001306F4FFE39684FE8324010083234100AF
:101BA00003C71400938414006308071493065002BB
:101BB000E306D7C613840400130507002320710031
:101BC000EF00D04F03451400938414006306051200
:101BD000130750026318E50C832301006FF01FC444
:101BE0000327C10013044700032707006380030C89
:101BF00083A603002380E60003A30300130313005E
:101C000023A0630003C71400E30407D8930650021F
:101C100093841400631CD722232681006FF0DFC059
:101C20008326C10003A70600938646006344071875
:101C30002326D1009306A0006FF05FC803C72400DD
:101C40009305060093842400930607FD93F6F60F90
:101C50001304F0FFE3EAD2BE1304000093069000E1
:101C6000130304001314230033046400938414004A
:101C7000131414003304E40003C70400130304FD29
:101C8000130407FD1374F40FE3FE86FC1304030032
:101C90006FF09FBBE38003F203A30300938604006D
:101CA0006FF0DFCA138404006FF09FF11375F70F14
:101CB0006318050203C7140093841400630E07021F
:101CC000930650026318D714232681006FF01FB5C6
:101CD00037370040130787F61305C0036FF01FDA8C
:101CE00023207100EF00903D03C7140083230100FF
:101CF00093841400E31607FC0324010483204104A9
:101D00008324C10313018104678000002326D100CE
:101D1000938604006FF09FC3232291001384050073
:101D20002320D1009304070023247100130504002D
:101D3000EF00D0389384F4FF9306F0FFE398D4FECD
:101D400083244100832601008323810003C71400FC
:101D500093841400E30207FA13065002E30AC7D87B
:101D60002326D1006FF01FE5232291002326B10026
:101D7000930404002320D1001304070023247100DE
:101D80006F008000638E0406EF005033034514009B
:101D9000130414009384F4FFE31605FE1384040077
:101DA0008325C10083260100832441008323810011
:101DB0006FF01FD03306E0406384030603A70300DF
:101DC0001305D0022300A70003A30300130313008D
:101DD00023A063001307A0001304F4FF2326D100FF
:101DE0002320E1006FF0DFBD130607001307000199
:101DF0002326D1002320E100130440006FF05FBCD4
:101E00008326010083224100832381002326D10001
:101E10006FF01FA6930604002326D1006FF09FD910
:101E20001305D002232671002324C1002322B10010
:101E30002320D100EF0090288323C10003268100D6
:101E400083254100832601006FF0DFF823268100FF
:101E5000938604006FF09FAF938204002326D10085
:101E60006FF01FA11307050083C6050093851500B9
:101E700013071700A30FD7FEE39806FE6780000044
:101E8000034705009306050013050000630C0700D7
:101E9000130515003387A60003470700E31A07FE62
:101EA0006780000067800000630006023306C500FB
:101EB0001307050083C60500130717009385150057
:101EC000A30FD7FEE318E6FE67800000630006025A
:101ED0008346050003C705001306F6FF130515002A
:101EE000639AE60093851500E31406FE13050000CF
:101EF000678000001305100063F4E6001305F0FF8F
:101F00006780000093F5F50FB306C50013070500C1
:101F10006308060013071700A30FB7FEE39CE6FE55
:101F200067800000130141FE130381002324B100E8
:101F30002326C100930505001306030013050000C6
:101F4000232211002328D100232AE100232CF100B1
:101F500023206100EFF0DF8983204100130500009A
:101F60001301C10167800000130101FF2326110046
:101F70002324810023229100EFF04FC03736004028
:101F8000B735004037350040130646F8938585F98C
:101F9000130505FAEFF01FF937440000373500400C
:101FA000930544231305C55CEF00C0283735004076
:101FB00093054423130585FBEFF0DFF6373400402B
:101FC0008324444AEF00D0110327444A23A0A400ED
:101FD0000327070063080708EFE08FDC373700406E
:101FE0000327474A2320A10013058700EFE04F9CF9
:101FF000373400408326444A03A6060003278600A0
:102000006306070403270100133717003307E04076
:10201000137757FF130797072383E6060327060066
:10202000032707000325470023A2E6001305450008
:10203000EFF08FBE8320C100032481008324410080
:1020400013050000130101016780000037C5FFFF81
:1020500013051500EF00C0428326444A03A606007C
:102060006FF05FFA37C5FFFF13052500EF00404111
:102070006FF09FF6373700400326474A130141FFB0
:10208000232281002324110023209100834466062B
:102090009306900713040500638AD4020327C5FF43
:1020A000B736004083A6864D1377E7FF232EE5FE63
:1020B00037370040232AD74C832081000324410076
:1020C000832401001301C100678000001305000094
:1020D000EFE08F8C373700408326474A0327C4FF41
:1020E000373600400326864D1377E7FF83C6660622
:1020F000232EE4FE37370040232AC74CE39E96FA8E
:102100000324410083208100832401001305100073
:102110001301C1006FE04F88130101FF23248100E8
:10212000373400400327444A23261100232291001C
:102130001303350003456706130790071373C3FFA6
:10214000630CE50AB732004083A6424D930580FF39
:10215000130683009384060003A406006302040CA4
:1021600003A7460013771700631607006F000002ED
:10217000032404000327440013771700E31A07FE23
:102180009304040093060400631E070083A3060063
:10219000638A030003A743009386030013771700A5
:1021A000E30607FE338795403387E60023A0D4007B
:1021B00023A2E400E362C7FA3386C40023AA924C48
:1021C0001363130023A0C40023A264002320D600BD
:1021D0002322B60013079007630EE50213848400E0
:1021E0008320C100130504000324810083244100DF
:1021F0001301010167800000130500002320610026
:10220000EFD09FF90327444A0323010003456706E3
:102210006FF05FF313051000EFD01FF86FF01FFC95
:1022200013079007E31EE5FA13051000EFD0DFF661
:102230006FF01FFB138735001377C7FF938585FF6A
:10224000B305B500130707FF2320B5002322E500DF
:1022500023A00500B73600403737004023A2050011
:1022600023ACA64C232AA74C6780000093060500E8
:10227000638E05021307100063CA050093951500CD
:1022800013171700E3DC05FE6302070213050000C5
:1022900063E6B600B386B6403305E5001357170072
:1022A00093D51500E31607FE6780000013050000B4
:1022B00067800000638A05021307100063CA0500E7
:1022C0009395150013171700E3DC05FE6302070260
:1022D000135717006364B5003305B54093D5150057
:1022E000E31807FE67800000130500006780000008
:1022F00067800000130181FD232091023367D6001F
:1023000093020600938406006304071023228102CF
:102310001303050093830500130710001304000046
:1023200063C80602939614001356F70193D4F20182
:10233000131414003364860013171700B3E4D40099
:1023400093921200E3D006FEB36687006380060E08
:1023500023220100232401001305030093D6120059
:102360002320D1001316F401935517001393F401A1
:1023700063E69306B3065540232AD1008326410025
:102380003387E600B3065540B336D5002326D10087
:10239000B3869340232CD10083264100B336D70067
:1023A0002328D10083268100B3868600232ED10006
:1023B0006394740063645502832681018322C10003
:1023C0002322E10003270101B38356408326C10184
:1023D000032541013307D7002324E10083260100B0
:1023E0003367B6001354140033668700B362D3001A
:1023F00093D41400E31406F603244102032541009C
:10240000832581008324010213018102678000007B
:102410002322C1002324D10003254100832581000C
:102420008324010213018102678000002322E1005E
:10243000232481006FF05FFC0327450093063000E2
:10244000034667066306D600130500006780000098
:1024500083562706E38A06FE9386F6FF93960601C7
:1024600093D606012311D706E39006FE93061000CB
:102470002303D7066FF05FFD1305F0FF67800000B0
:10248000130181FF232081001304050013050000C0
:1024900023221100EFD05FD03735004093050400B0
:1024A000130545FDEFF01FA8373700400327474BC2
:1024B00037C6FFFF1306160183260700638AC6008E
:1024C000638886008326870013078700E39AC6FE89
:1024D0008325470037350040130545FEEFF09FA4E4
:1024E0006F000000373700408326474A37373333C1
:1024F0001307373383A6460083A5460003A6450588
:10250000832606006394E6006780000083A68505A5
:1025100083D50506373500401301C1FF1305C5FEFD
:1025200023201100EFF01FA037C5FFFF1305A50002
:10253000EFF01FF5130141FF2322810037340040E3
:102540000327444A232411002320910083254700B8
:102550001306200083A6450003C566066316C50062
:10256000130610002383C606B72400009384247149
:102570006F0080000327444A032507009384F4FF7B
:10258000EF00004803274500930505006384040617
:102590000346670693061000E31ED6FC8326C70594
:1025A000E39A06FC835647069386F6FF9396060148
:1025B00093D606012312D70613F6F60FE31C06FA8C
:1025C0000326444A13D58600B3E6A6002322B600AC
:1025D000130620002303C706832081000324410043
:1025E0002312D70603550706832401001301C100F7
:1025F0006780000037C5FFFF13051500EFF05FE8A7
:10260000373700400327474A130181FF2322110077
:102610000326070083264700232081000327860026
:1026200003A546006304070813054500EFD05FB813
:10263000630A050083204100032401001301810087
:1026400067800000EFF01FEA373400400327444A58
:10265000B725004093858543032507001306000036
:10266000EF00403C0327444A03278705E7000700A3
:10267000634A0502373700400327474A03274700CC
:1026800003244700EFE09FD7930510001305440093
:10269000EFD01FB483204100032401001301810007
:1026A00067800000EFF01FE96FF0DFFC37C5FFFF28
:1026B00013051500EFF0DFDC373700408326474A6B
:1026C00003A706061307170023A0E6066FF05FF3C3
:1026D000130101FF13070500130580062324810061
:1026E00023261100232291002320E10013840500FA
:1026F000EFF09FA2630E0512373700400327474AC9
:102700009306900793040500034667066300D610FE
:102710000325070093850400EF000028630A0510D5
:10272000373700400326474A03270100232295003C
:102730008356460623A0E40023AE04042391040636
:1027400023AC840493851600372700002312B606B5
:102750001307F7F12390D406238304062392E4069B
:1027600013050400EFF05F9B23AAA4046308050C83
:10277000373700408326474A1307900783C666060B
:102780006380E60A1306040093059006EFF08FF7C6
:1027900003A544051306400093053003EFF08FF6C0
:1027A00003A5440513172400130707FF3305E500AD
:1027B0001306400093053003EFF0CFF483260100A9
:1027C00083A544051306040013854400EFE05FC7AA
:1027D00003A7840583A6440503A6040083D5040645
:1027E0003735004013054501EFF0CFF31307100014
:1027F0002383E4068320C1000324810003D504065B
:1028000083244100130101016780000013050000CB
:10281000EFD09F98373700400327474A6FF05FEFAC
:1028200013051000EFD05F9703A544056FF09FF5E7
:1028300037C5FFFF13053500EFF09FC437C5FFFF15
:1028400013054500EFF0DFC3373700400327474A41
:10285000032747000327470003550706678000004A
:10286000374703E137350040832507001307C55A72
:102870000327470193F5F50F1305C55A67000700B5
:10288000130500006780000013050000678000004A
:102890001305000067800000373700402328A74A4F
:1028A00067800000373700402326A74A6780000072
:1028B000373700402324A74A67800000373700409D
:1028C0000327074B1301C1FF23201100E700070076
:1028D0008320010013050000130141006780000000
:1028E000130141FF1305C00023241100232281009E
:1028F000EFF09F82630805061304050013058000AE
:1029000023209100EFF05F81930405006306050426
:1029100013058000EFF05F806302050637E70000D3
:102920001307D7EA23A0A40023A2E4002320050074
:1029300023220500232094002322A4008320810069
:102940002324040013050400032441008324010010
:102950001301C1006780000013050400EFF08FF140
:102960008324010013040000832081001305040068
:10297000032441001301C100678000001305040017
:10298000EFF04FEF13850400EFF0CFEE13040000DB
:10299000832401006FF05FFD130141FF23209100AC
:1029A00093040500130580002322810023241100D5
:1029B00013840500EFF04FF66300050483A684003E
:1029C0001307050003A54400232207002320070066
:1029D0002320E500232285009386160023A2E4002D
:1029E00023A4D40083208100032441008324010018
:1029F0001301C10067800000130500006FF09FFE07
:102A000003A7050083260700638606001305070059
:102A10006780000003270500032707001305070050
:102A20006780000003270500130101FF23248100B4
:102A300003240700232611002320C100832604005D
:102A40006382060423229100938405006F00000135
:102A50000324040083260400638406028325010006
:102A600013050400E7800400E30405FE8320C10091
:102A700003248100832441001301010167800000C9
:102A8000832441008320C10003248100130500003A
:082A9000130101016780000041
:102A98005B4150505F4D41494E5D204D656E7361FD
:102AA80067656D206E756C610A000000205B4150FF
:102AB800505F4D41494E5D205072652D63616C63D6
:102AC800756C6F3A0A0000002D2054616D616E68C4
:102AD8006F206F726967696E616C3A2020257520D6
:102AE80062797465730A00002D20426C6F636F73FE
:102AF80020636F6D706C65746F733A2020202020FE
:102B080020202025750A00002D2042797465732045
:102B180064652070616464696E673A202020202013
:102B280020202025750A00002D20546F74616C2028
:102B380066696E616C202863726970746F67726170
:102B48006661646F293A202575206279746573205F
:102B580028257520626C6F636F73290A00000000D6
:102B680074686520717569636B2062726F776E2077
:102B7800666F78206A756D7073206F766572207441
:102B88006865206C617A7920646F67002D2D2D2D82
:102B98002D2D2D2D2D2D2D2D2D2D2D2D2D2D2D2D5D
:102BA8002D2D2D2D2D2D2D2D2D2D2D20494E4943EB
:102BB800494F202D2D2D2D2D2D2D2D2D2D2D2D2D0C
:102BC8002D2D2D2D2D2D2D2D2D2D2D2D2D2D2D2D2D
:102BD8002D2D2D2D2D2D0A000A0A2D2D2D2D2D2DB3
:102BE8002D2D2D2D2D2D2D2D2D2D2D2D2D2D2D2D0D
:102BF8002D2D2D2D2D2D2D2D2D2D2D2D2D2D2D2DFD
:102C08002D2D2D2D2D2D2D2D2D2D2D2D2D2D2D2DEC
:102C18002D2D2D2D2D2D2D2D2D2D2D2D2D0A200930
:102C28004D4F444F204445204F5045524143414F5A
:102C38003A203C3C3C3C3C3C3C3C3C3C3C3C4542DB
:102C4800433E3E3E3E3E3E3E3E3E3E3E3E3E3E3E97
:102C58000A20092D2D2D2D2D2D2D2D2D2D2D2D2DF0
:102C68002D2D2D2D2D2D2D2D2D2D2D2D2D2D2D2D8C
:102C78002D2D2D2D2D2D2D2D2D2D2D2D2D2D2D2D7C
:102C88002D2D2D2D2D2D2D2D2D2D2D2D2D2D2D2D6C
:102C98002D2D2D2D2D2D0A0A000000005B415050CE
:102CA8005F4D41494E5D20544558544F204F52497D
:102CB80047494E414C3A200A25730A000A00000091
:102CC8007461736B2025643A20647269766572209A
:102CD800696E207573652E0A000000005B41505034
:102CE8005F4D41494E5D20544558544F2043494655
:102CF8005241444F3A200A005B4150505F4D4149D0
:102D08004E5D20544558544F20524543454249444E
:102D18004F2044454349465241444F3A200A000057
:102D28002D2D2D2D2D2D2D2D2D2D2D2D2D2D2D2DCB
:102D38002D2D2D2D2D2D2D2D2D2D2D2D2D2D2D2DBB
:102D48002D2046494D202D2D2D2D2D2D2D2D2D2D70
:102D58002D2D2D2D2D2D2D2D2D2D2D2D2D2D2D2D9B
:102D68002D2D2D2D2D2D2D0A000000005B564552CE
:102D7800494649434143414F5D3A20504153534FDF
:102D88005520546578746F20646563696672616460
:102D98006F204241544520636F6D206F206F726928
:102DA80067696E616C2E0A005B5645524946494375
:102DB8004143414F5D3A20546578746F20646563E0
:102DC80069667261646F206E616F20636F6E6665FD
:102DD800726520636F6D206F206F726967696E611D
:102DE8006C2E0A00746465735F454342000000005E
:102DF8005B544445535F4452495645525D3A204E10
:102E0800616F206573206F207573657220636F7220
:102E18007265746F0A0000005B544445535F445266
:102E2800495645525D3A205573756172696F206144
:102E38007475616C3A2025640A0000005B544445AF
:102E4800535F4452495645525D3A20557375617235
:102E5800696F20717565206368616D6F753A20250B
:102E6800640A00005B544445535F44524956455236
:102E78005D3A20447269766572206E616F206573D1
:102E88007461206C696761646F0A00005B54444593
:102E9800535F4452495645525D3A20436C6F7369FB
:102EA8006E67206472697665720A00005B54444557
:102EB800535F4452495645525D3A2044524956455B
:102EC8005220494E205553450A0000005B544445A2
:102ED800535F4452495645525D3A20494E56414C3B
:102EE8004944413A2025640A000000005B544445E7
:102EF800535F4452495645525D3A2044726976659B
:102F08007220656D206A6120656D2075736F0A00F7
:102F18005B544445535F4452495645525D3A2044F8
:102F28007269766572206C696761646F0A000000D7
:102F38006972712100000000756E6B6E6F776E20EC
:102F480069727120736F7572636520666F722053A2
:102F580030434155534520253038780A0000000099
:102F68003C4E554C4C3E0000303132333435363708
:102F78003839616263646566000000005256333276
:102F880045202848462D52495343562D45290000CF
:102F9800302E3937000000005543582F4F53207604
:102FA800257320626F6F74206F6E2025730A0000EE
:102FB800686561705F696E697428292C2025642012
:102FC800627974657320667265650A000A2A2A2A7E
:102FD8002048414C5420282564290000202D202514
:102FE800730A00000A2A2A2A207461736B20256458
:102FF8002C20737461636B3A203078257020287315
:10300800697A65202564290A000000007461736BE1
:103018002025643A20307825702C20737461636B06
:103028003A20307825702C2073697A652025640A47
:10303800000000006E6F206572726F720000000061
:103048006661696C757265006E6F207461736B736D
:1030580020746F2072756E006B636220616C6C6FF8
:1030680063206661696C6564000000007463622017
:10307800616C6C6F63206661696C656400000000B8
:10308800737461636B20616C6C6F63206661696C3B
:10309800656400007461736B206E6F7420666F75D1
:1030A8006E6400007461736B2073757370656E6471
:1030B800206661696C6564007461736B2072657366
:1030C800756D65206661696C656400007461736B79
:1030D80020696E76616C6964207072696F726974B8
:1030E80079000000737461636B20636865636B200B
:1030F8006661696C656400007069706520616C6C5C
:103108006F63206661696C656400000070697065B2
:10311800206465616C6C6F63206661696C6564002E
:1031280073656D6120616C6C6F63206661696C65A5
:103138006400000073656D61206465616C6C6F6389
:10314800206661696C65640073656D61206F7065E8
:10315800726174696F6E206661696C656400000055
:103168006D657373616765207175657565206E6F30
:103178007420656D70747900756E6B6E6F776E2054
:10318800726561736F6E0000B8140040B814004097
:10319800E8140040A414004070160040A414004035
:1031A800A4140040A4140040D0150040A41400400A
:1031B800A4140040A4140040A4140040A414004027
:1031C800A4140040A4140040B8140040A414004003
:1031D800A4140040A4140040A4140040A414004007
:1031E800A4140040A4140040A4140040A4140040F7
:1031F800A4140040A4140040A4140040A4140040E7
:10320800A4140040A4140040B8140040A8180040BA
:103218006C1800406C1800406C1800406C18004096
:103228006C1800406C1800406C1800406C18004086
:103238006C1800406C180040E01B0040201C004047
:103248006C1800406C1800406C1800406C18004066
:103258006C1800406C1800406C1800409C19004025
:103268006C1800406C1800406C180040F81A0040B8
:103278006C1800406C180040641A00406C1800403C
:10328800A01900406C1800406C180040A8180040B5
:10329800EC2D0040AC320040C0340040D432004035
:1032A80000000000010088880200888803008888E0
:1032B8000050888800208888003088883600000000
:1032C8001400000001008888000088889C080040DD
:1032D8000000000064070040500600404809004014
:1032E8006C0A004000000000000000006028004058
:1032F8005014004050140040501400405014004036
:103308005014004050140040501400405014004025
:103318005014004050140040501400405014004015
:103328005014004050140040501400405014004005
:1033380050140040781300405014004050140040CE
:1033480050140040501400405014004050140040E5
:1033580050140040501400405014004050140040D5
:1033680050140040501400405014004050140040C5
:103378005014004050140040501400405C140040A9
:1033880050140040501400405014004050140040A5
:103398005014004050140040501400400000000039
:1033A8000000000000000000000000000000000015
:1033B8000000000000000000000000000000000005
:1033C80000000000000000000000000000000000F5
:1033D80000000000000000000000000000000000E5
:1033E80000000000000000000000000000000000D5
:1033F80000000000782400400000000000000000E9
:1034080000000000000000003C300040FFFFFFFF0C
:103418004830004001C0FFFF5030004002C0FFFFAD
:103428006030004003C0FFFF7430004004C0FFFF5D
:103438008830004006C0FFFF9C30004007C0FFFFF7
:10344800AC30004008C0FFFFC030004009C0FFFF9B
:10345800D43000400AC0FFFFEC3000400BC0FFFF33
:10346800003100400CC0FFFF143100400DC0FFFFC9
:10347800283100400EC0FFFF3C3100400FC0FFFF65
:103488005031004010C0FFFF6831004011C0FFFFFD
:103498008031004001000000FFFF0000A43300401D
:1034A8009028004088280040802800400C340040C4
:0400000540000000B7
:00000001FF
